:0300000002066491
:0C066400787FE4F6D8FD7581D00206AB6B
:10034E0041542B43574D4F44453D330D0A00415404
:10035E002B4349504D55583D300D0A0041542B4307
:10036E0049504D4F44453D300D0A0041542B4349F1
:10037E005053544152543D22544350222C22323376
:10038E002E3130362E3132382E313830222C373253
:10039E0037300D0A0041542B435753544152545396
:1003AE004D4152540D0A0041542B435753544F5054
:1003BE00534D4152540D0A0041542B43495053455D
:1003CE004E443D33320D0A0041542B4349505345A0
:1003DE004E443D31340D0A0041542B434950534590
:1003EE004E443D370D0A0041542B43495053454E60
:1003FE00443D350D0A0041542B434950434C4F5355
:10040E00450D0A0053484152500D0A0041542B52DB
:05041E0053540D0A001B
:1006F0000337FF034E033CFF035C0348FF036A0319
:100700002DFF03790345FF03A3032AFF03B503333A
:10071000FF03C60330FF03D6034FFF03E6034CFF7E
:0707200003F50353FF04047D
:10021E001207861207B21207C67552FE7557FD7584
:10022E0058FAE55270FC1207D9D201753A00753BA7
:10023E003275421E7557FA12074A1205B3D20312CF
:10024E000728D203E54B60FCC203C2AF789BE6FEE3
:10025E0008E6FDEEF53AEDF53BD2AF7558C812073C
:10026E004A78597C007D007B007A0079957E007F6C
:10027E00071200F678957C007D00AB2DAA2EA92FD3
:10028E001201E87B007A00799512000E12079C7F0E
:10029E00C81207E27FC81207E27FC81207E27FC8C2
:1002AE001207E27FC81207E27FC81207E278957C38
:1002BE00007D00AB30AA31A9321201E87B007A0032
:1002CE00799512000E12079C78957C007D007BFFBD
:1002DE007A0479121201E87B007A00799512000EE9
:1002EE0012079C78957C007D007B007A0079597E00
:1002FE00007F071200F67F077E0012079C7FC81250
:10030E0007E27FC81207E27FC81207E27FC8120712
:10031E00E27FC81207E27FC81207E278957C007D63
:10032E0000AB53AA54A9551201E87B007A007995C7
:10033E0012000E12079CE4F54B7F051207E9414DA2
:10078600E4F597F54BC202F542F556F544F552F5F8
:0607960057F558F536226C
:1007B200759104E4F592F5B175B2807590FF75B04C
:0407C200FFC2B72299
:1005B30012074AC2037F0A1207E97558C878957C67
:1005C300007D00AB45AA46A9471201E87B007A00EB
:1005D300799512000E12079CE4F5087557C87F0140
:1005E3001207E90508E508C3947840EF78957C0085
:1005F3007D00AB2AAA2BA92C1201E87B007A007993
:100603009512000E12079C78957C007D007BFF7A83
:1006130004791A1201E87B007A00799512000E1210
:10062300079C7F031207E978957C007D00AB3CAA09
:100633003DA93E1201E87B007A00799512000E1263
:10064300079C78957C007D00AB48AA49A94A120112
:10065300E87B007A00799512000E12079CE4F53FBF
:010663002274
:1007C6005389F0538E7F758A48758CFFD28CD2A9D7
:0307D600D2AF227D
:10074A00759850438E01438E04C29D75D7D075D6D5
:0E075A00FF438E1053A2BFD29CD2ACD2CD2250
:10076800759850438E01438E04C29D75D7C075D6C7
:0E077800FD438E1043A240D29CD2ACD2CD22C3
:10072800759850438E01438E04C29DE4F5D775D663
:10073800F743A240438E10D29CD2ACD200D203C25F
:02074800CD22C0
:03000B00020423C9
:0B042300C0E0C0D075D000C006C007CC
:10042E00E543600215430527E52770020526C394B0
:10043E00C8E5269400400F7526007527003001048C
:10044E00D2B78002C2B7C3E527953BE526953A4061
:10045E000530B202C2B70521E521C3940A40787572
:10046E002100E55260021552E55760091557439277
:10047E0002C2918005D2915392FDE558600915583C
:10048E00439201C29080055392FED290E5296004FA
:10049E0015298006753F007536000522E522C394A6
:1004AE000A4034752200E544600215440523E52315
:1004BE00C394644022752300E54260021542E5565E
:1004CE00600215560525E52570020524FFAE24BEF3
:0704DE000305BFE802D20490
:0904E500D007D006D0D0D0E032DF
:0907D900120768438702000022A8
:030023000204EEE6
:0D04EE00C0E0C0D075D000C000C006C0073F
:1004FB00209802A18AC29875296475421EAF99E5AE
:10050B003FC3943C4003753F00300367E54B70637A
:10051B00E5361460211460442402704FBFAA12AE5A
:10052B003F053F74952EF8A6077528007536018098
:10053B006C753F008067AE3F053F74952EF8A6079C
:10054B00E53FB40610E528B507057536028006753C
:10055B003F00753600EF2528F52880417495253F1F
:10056B00F8A607BFFF03754B018000753F0075367A
:10057B0000802AAE3F053F74952EF8A607801E30EB
:10058B00991BC299E540C39541501074952540F8CD
:0D059B00E6A2D0929BF59905408002C202B5
:0B05A800D007D006D000D0D0D0E03249
:10079C00E4F5408F41D202D2992002FD7FC81207A6
:0607AC00E27FC80207E233
:070003008F43E54370FC226E
:0707E2008F52E55270FC226A
:0707E9008F56E55670FC225B
:1006700002021EE493A3F8E493A34003F68001F280
:1006800008DFF48029E493A3F85407240CC8C3338B
:10069000C4540F4420C8834004F456800146F6DF5A
:1006A000E4800B01020408102040809006F0E47EF4
:1006B000019360BCA3FF543F30E509541FFEE4934F
:1006C000A360010ECF54C025E060A840B8E493A316
:1006D000FAE493A3F8E493A3C8C582C8CAC583CA41
:1006E000F0A3C8C582C8CAC583CADFE9DEE780BEF9
:0107270000D1
:10002600E709F608DFFA8046E709F208DFFA803EBC
:1000360088828C83E709F0A3DFFA8032E309F608A9
:10004600DFFA8078E309F208DFFA807088828C8311
:10005600E309F0A3DFFA806489828A83E0A3F608C5
:10006600DFFA805889828A83E0A3F208DFFA804C9F
:1000760080D280FA80C680D4806980F28033801076
:1000860080A680EA809A80A880DA80E280CA8033DF
:1000960089828A83ECFAE493A3C8C582C8CCC58357
:1000A600CCF0A3C8C582C8CCC583CCDFE9DEE78027
:1000B6000D89828A83E493A3F608DFF9ECFAA9F0A6
:1000C600EDFB2289828A83ECFAE0A3C8C582C8CCFC
:1000D600C583CCF0A3C8C582C8CCC583CCDFEADE15
:1000E600E880DB89828A83E493A3F208DFF980CC77
:1000F60088F0EF60010E4E60C388F0ED2402B40470
:100106000050B9F582EB2402B4040050AF23234516
:06011600822390007673C5
:10011C00E709F60870FA8046E709F20870FA803EA3
:10012C0088828C83E709F0A370FA807EE309F608D5
:10013C0070FA8076E309F20870FA806E88828C83FC
:10014C00E309F0A370FA806289828A83E0A3F6083F
:10015C0070FA805689828A83E0A3F20870FA804A8A
:10016C0080D280FA80C680D4806580F28031801085
:10017C0080A680EA809A80A880DA80E280CA8031EA
:10018C0089828A83ECFAE493A3C8C582C8CCC58360
:10019C00CCF0A3C8C582C8CCC583CC70E9800D89CE
:1001AC00828A83E493A3F60870F9ECFAA9F0EDFBCC
:1001BC002289828A83ECFAE0A3C8C582C8CCC583A5
:1001CC00CCF0A3C8C582C8CCC583CC70EA80DD89CD
:1001DC00828A83E493A3F20870F980CE88F0ED2430
:1001EC0002B4040050C4F582EB2402B4040050BAEB
:0901FC00232345822390016C735A
:10000E00E4FFFE120205600C0FEF70010E09E9709D
:05001E00F20A80EF2250
:10020500BB010689828A83E0225002E722BBFE02F7
:09021500E32289828A83E493222A
:00000001FF
