:030000000206AA4B
:0C06AA00787FE4F6D8FD7581D00206F1DF
:1004470041542B43574D4F44453D330D0A0041540A
:100457002B4349504D55583D300D0A0041542B430D
:1004670049504D4F44453D300D0A0041542B4349F7
:100477005053544152543D22544350222C2232337C
:100487002E3130362E3132382E313830222C373259
:1004970037300D0A0041542B43575354415254539C
:1004A7004D4152540D0A0041542B435753544F505A
:1004B700534D4152540D0A0041542B434950534563
:1004C7004E443D33320D0A0041542B4349505345A6
:1004D7004E443D31340D0A0041542B434950534596
:1004E7004E443D370D0A0041542B43495053454E66
:1004F700443D350D0A0041542B434950434C4F535B
:10050700450D0A0041542B43495053454E443D3451
:10051700310D0A006B696A69366C750D0A00415422
:070527002B5253540D0A0092
:100736000337FF0447033CFF04550348FF046303E4
:100746002DFF04720345FF049C032AFF04AE033306
:10075600FF04BF0330FF04CF034FFF04DF034CFF4A
:0707660004EE0353FF04FD44
:10021E001207CC1207E21208007552FE7557FD75D3
:10022E0058FAE55270FC1207F6D201753A00753B8A
:10023E003275421E7557FA1207901205F91207AE63
:10024E00D2031207AED203E54B60FCC203C2AF78F5
:10025E009BE6FE08E6FDEEF53AEDF53BD2AF75589E
:10026E00C812079078597C007D007B007A00799542
:10027E007E007F201200F678957C007D00AB2DAAC3
:10028E002EA92F1201E87B007A00799512000E122A
:10029E0008137FC81208247FC81208247FC81208CA
:1002AE00247FC81208247FC81208247FC81208248D
:1002BE0078957C007D007BFF7A05790B1201E87B37
:1002CE00007A00799512000E12081378957C007D45
:1002DE00007BFF7A05791B1201E87B007A00799585
:1002EE0012000E12081378957C007D007B007A00B8
:1002FE0079597E007F201200F67F207E00120813AF
:10030E007FC81208247FC81208247FC81208247FD1
:10031E00C81208247FC81208247FC81208247895B2
:10032E007C007D00AB53AA54A9551201E87B007ADC
:10033E0000799512000E120813E4F54B7F03120894
:03034E002B4150F0
:1007CC00E4F597F54BC202F542F556F544F552F5B2
:0607DC0057F558F5362226
:1007E200759104E4F592F5B175B2807590FF75B01C
:0407F200FFC2B72269
:1005F900120790C2037F0A12082B7558C878957C98
:10060900007D00AB45AA46A9471201E87B007A00A4
:10061900799512000E120813E4F5087557C87F0181
:1006290012082B0508E508C3947840EF78957C00FB
:100639007D00AB2AAA2BA92C1201E87B007A00794C
:100649009512000E12081378957C007D007BFF7AC5
:100659000579251201E87B007A00799512000E12BE
:1006690008137F0312082B78957C007D00AB3CAA08
:100679003DA93E1201E87B007A00799512000E121D
:10068900081378957C007D00AB48AA49A94A120154
:10069900E87B007A00799512000E120813E4F53F01
:0106A900222E
:100800005389F0538E7F758A48758CFFD28CD2A99C
:03081000D2AF2242
:10079000759850438E01438E04C29D75D7D075D68F
:0E07A000FF438E1053A2BFD29CD2ACD2CD220A
:1007AE00759850438E01438E04C29D75D7C075D681
:0E07BE00FD438E1043A240D29CD2ACD2CD227D
:10076E007598D0438E01438E04C29DE4F5D775D69D
:10077E00F743A240438E10D29CD2ACD200D203C219
:02078E00CD227A
:03000B0002052EBD
:0B052E00C0E0C0D075D000C006C007C0
:10053900E543600215430527E52770020526C394A4
:10054900C8E5269400400F75260075270030010480
:10055900D2B78002C2B7C3E527953BE526953A4055
:100569000530B202C2B70521E521C3940A40787566
:100579002100E55260021552E5576009155743926B
:1005890002C2918005D2915392FDE5586009155830
:10059900439201C29080055392FED290E5296004EE
:1005A90015298006753F007536000522E522C3949A
:1005B9000A4034752200E544600215440523E52309
:1005C900C394644022752300E54260021542E55652
:1005D900600215560525E52570020524FFAE24BEE7
:0705E9000305BFE802D20484
:0905F000D007D006D0D0D0E032D3
:0907F6001207AE43870200002245
:0300230002035184
:0D035100C0E0C0D075D000C000C006C007DD
:10035E00209802811EC29875296475421EAF99E5D8
:10036E003FC3943C4003753F002003028112E536E3
:10037E0014602614603C1460521460682404707C6F
:10038E00BF4211AE3F053F74952EF8A6078F287514
:10039E003601813C753F00813CBF4D14AE3F053F99
:1003AE0074952EF8A607EF2528F528753602807E5F
:1003BE00804AEF7014AE3F053F74952EF8A607EFF6
:1003CE002528F52875360380658031BF1C14AE3F95
:1003DE00053F74952EF8A607EF2528F528753604E7
:1003EE00804C8018AE3F053F74952EF8A607E53F6A
:1003FE006420703A853F4B7557328032753F0075D9
:10040E003600802AAE3F053F74952EF8A607801E53
:10041E0030991BC299E540C3954150107495254003
:0E042E00F8E6A2D0929BF59905408002C2022A
:0B043C00D007D006D000D0D0D0E032B6
:10081300E4F5408F41D202D2992002FD7FC802083D
:0108230024B0
:070003008F43E54370FC226E
:070824008F52E55270FC2227
:07082B008F56E55670FC2218
:1006B60002021EE493A3F8E493A34003F68001F23A
:1006C60008DFF48029E493A3F85407240CC8C33345
:1006D600C4540F4420C8834004F456800146F6DF14
:1006E600E4800B0102040810204080900736E47E67
:1006F600019360BCA3FF543F30E509541FFEE49309
:10070600A360010ECF54C025E060A840B8E493A3CF
:10071600FAE493A3F8E493A3C8C582C8CAC583CAFA
:10072600F0A3C8C582C8CAC583CADFE9DEE780BEB2
:01076D00008B
:10002600E709F608DFFA8046E709F208DFFA803EBC
:1000360088828C83E709F0A3DFFA8032E309F608A9
:10004600DFFA8078E309F208DFFA807088828C8311
:10005600E309F0A3DFFA806489828A83E0A3F608C5
:10006600DFFA805889828A83E0A3F208DFFA804C9F
:1000760080D280FA80C680D4806980F28033801076
:1000860080A680EA809A80A880DA80E280CA8033DF
:1000960089828A83ECFAE493A3C8C582C8CCC58357
:1000A600CCF0A3C8C582C8CCC583CCDFE9DEE78027
:1000B6000D89828A83E493A3F608DFF9ECFAA9F0A6
:1000C600EDFB2289828A83ECFAE0A3C8C582C8CCFC
:1000D600C583CCF0A3C8C582C8CCC583CCDFEADE15
:1000E600E880DB89828A83E493A3F208DFF980CC77
:1000F60088F0EF60010E4E60C388F0ED2402B40470
:100106000050B9F582EB2402B4040050AF23234516
:06011600822390007673C5
:10011C00E709F60870FA8046E709F20870FA803EA3
:10012C0088828C83E709F0A370FA807EE309F608D5
:10013C0070FA8076E309F20870FA806E88828C83FC
:10014C00E309F0A370FA806289828A83E0A3F6083F
:10015C0070FA805689828A83E0A3F20870FA804A8A
:10016C0080D280FA80C680D4806580F28031801085
:10017C0080A680EA809A80A880DA80E280CA8031EA
:10018C0089828A83ECFAE493A3C8C582C8CCC58360
:10019C00CCF0A3C8C582C8CCC583CC70E9800D89CE
:1001AC00828A83E493A3F60870F9ECFAA9F0EDFBCC
:1001BC002289828A83ECFAE0A3C8C582C8CCC583A5
:1001CC00CCF0A3C8C582C8CCC583CC70EA80DD89CD
:1001DC00828A83E493A3F20870F980CE88F0ED2430
:1001EC0002B4040050C4F582EB2402B4040050BAEB
:0901FC00232345822390016C735A
:10000E00E4FFFE120205600C0FEF70010E09E9709D
:05001E00F20A80EF2250
:10020500BB010689828A83E0225002E722BBFE02F7
:09021500E32289828A83E493222A
:00000001FF
